:1000000009C0C4C015C014C013C012C011C010C0B4
:100010000FC00EC011241FBECFE9CDBF20E0A0E667
:10002000B0E001C01D92A236B207E1F7EFD0DDC10A
:10003000E7CF87B3816187BBC49AC098BC98C49846
:100040002EEF3FEFA895B49B03C021503109D0F7A4
:100050008BED95E00197F1F700C000008EEF9FEF68
:10006000821B930B0895882341F0EBEDF5E0319767
:10007000F1F700C000008150F6CF08950F931F9351
:10008000CF93DF93142F98B39093610097B321E03F
:1000900030E0082E01C0220F0A94EAF7022F922BBB
:1000A00097BB98B3D22FD0959D2398BBBC9AC49888
:1000B000C62FCC2369F098B3902B98BB812FD3DF48
:1000C00098B39D2398BBA895812FCDDFC150F1CF68
:1000D0008091610088BBDF91CF911F910F910895AE
:1000E000CF93DF93A89582E3BEDFB19B23C0C49872
:1000F000C09A81E08093650045E065E080E0BEDF66
:10010000BA9AC09AC29A2FEB84ED91E021508040B8
:100110009040E1F700C00000BA98C298C0981092D1
:1001200064001092630010926700109266001092B3
:10013000650029C082E397DFC0E0D0E0B19916C026
:10014000CF5FC63008F0C1E044E16C2F80E096DF5D
:100150002FEB84ED91E0215080409040E1F700C00A
:100160000000A895C0936500D1E0E8CFB19B08C01E
:100170006C2F83E090E014D148E26C2F80E07EDFAA
:10018000DD2309F4B4CFDF91CF9108951F920F9230
:100190000FB60F9211242F933F934F935F936F935A
:1001A0007F938F939F93AF93BF93EF93FF9398DFCA
:1001B000FF91EF91BF91AF919F918F917F916F913F
:1001C0005F914F913F912F910F900FBE0F901F9015
:1001D000189528E288E190E00FB6F894A89581BDC3
:1001E0000FBE21BD85B7877E806185BF8BB78064D8
:1001F0008BBF8AB780648ABF85B785BF87B38D619F
:1002000087BBC098B998C19A78940895E2DF80912D
:1002100065008530C9F444E661E080E02FDF09DF46
:10022000BC016053784F81E090E0CCD01092640024
:1002300010926300109267001092660010926500A1
:1002400044E661E080E01ADFF4DEEC0181E090E05A
:10025000A4D011E0C817D90708F010E0809162001F
:10026000811761F1181700F5809163009091640087
:100270008897F0F045E065E080E000DFBA9AC09A28
:10028000C29A2FEB84ED91E0215080409040E1F73D
:1002900000C00000BA98C298C098109267001092EF
:1002A00066001092650004C042E06AE080E0E6DE8D
:1002B00010926400109263001093620080916300BA
:1002C0009091640081319E4020F010926400109261
:1002D00063008091630090916400810F911D909361
:1002E00064008093630061E0610F42E080E0C6DE5D
:1002F00083E090E04AD0863008F081E020916600EB
:10030000309167002F5F3F4F309367002093660066
:1003100090E061EC72E028D028173907E9F445E055
:1003200065E080E0ABDEBA9AC09AC29A8FEB94ED9A
:1003300021E0815090402040E1F700C00000BA98D1
:10034000C298C098109264001092630010926700E7
:10035000109266001092650085B7806285BF88950F
:1003600085B78F7D85BFFFCF0024552704C0080EB9
:10037000591F880F991F009729F076956795B8F354
:100380007105B9F7802D952F0895E199FECF1FBA19
:100390008EBBE09A99278DB30895A8E142E018C07A
:1003A000262FE199FECF1FBA8EBBE09A81500DB285
:1003B000021639F01CBA2DBB0FB6F894E29AE19AF6
:1003C0000FBE08950196272FECDFEACFA82F862FC6
:1003D000E82FE199FECF1FBA05C0EEBBE09AE39586
:0E03E0000DB20D924150C8F70895F894FFCF6A
:00000001FF
